{
  "contractName": "PostFactory",
  "abi": [
    {
      "anonymous": false,
      "inputs": [
        {
          "indexed": true,
          "internalType": "address",
          "name": "previousOwner",
          "type": "address"
        },
        {
          "indexed": true,
          "internalType": "address",
          "name": "newOwner",
          "type": "address"
        }
      ],
      "name": "OwnershipTransferred",
      "type": "event"
    },
    {
      "anonymous": false,
      "inputs": [
        {
          "indexed": false,
          "internalType": "address",
          "name": "client",
          "type": "address"
        },
        {
          "indexed": false,
          "internalType": "uint256",
          "name": "hit",
          "type": "uint256"
        }
      ],
      "name": "voteCast",
      "type": "event"
    },
    {
      "inputs": [],
      "name": "owner",
      "outputs": [
        {
          "internalType": "address",
          "name": "",
          "type": "address"
        }
      ],
      "stateMutability": "view",
      "type": "function",
      "constant": true
    },
    {
      "inputs": [
        {
          "internalType": "uint256",
          "name": "",
          "type": "uint256"
        }
      ],
      "name": "postToOwner",
      "outputs": [
        {
          "internalType": "address",
          "name": "",
          "type": "address"
        }
      ],
      "stateMutability": "view",
      "type": "function",
      "constant": true
    },
    {
      "inputs": [
        {
          "internalType": "uint256",
          "name": "",
          "type": "uint256"
        }
      ],
      "name": "posts",
      "outputs": [
        {
          "internalType": "string",
          "name": "name",
          "type": "string"
        },
        {
          "internalType": "string",
          "name": "content",
          "type": "string"
        },
        {
          "internalType": "uint32",
          "name": "prev",
          "type": "uint32"
        },
        {
          "internalType": "uint32",
          "name": "next",
          "type": "uint32"
        }
      ],
      "stateMutability": "view",
      "type": "function",
      "constant": true
    },
    {
      "inputs": [],
      "name": "renounceOwnership",
      "outputs": [],
      "stateMutability": "nonpayable",
      "type": "function"
    },
    {
      "inputs": [
        {
          "internalType": "address",
          "name": "newOwner",
          "type": "address"
        }
      ],
      "name": "transferOwnership",
      "outputs": [],
      "stateMutability": "nonpayable",
      "type": "function"
    },
    {
      "inputs": [],
      "name": "SurveyFactory",
      "outputs": [],
      "stateMutability": "nonpayable",
      "type": "function"
    },
    {
      "inputs": [
        {
          "internalType": "uint32",
          "name": "_prev",
          "type": "uint32"
        },
        {
          "internalType": "string",
          "name": "_name",
          "type": "string"
        },
        {
          "internalType": "string",
          "name": "_content",
          "type": "string"
        }
      ],
      "name": "createPost",
      "outputs": [],
      "stateMutability": "nonpayable",
      "type": "function"
    },
    {
      "inputs": [],
      "name": "test",
      "outputs": [],
      "stateMutability": "nonpayable",
      "type": "function"
    },
    {
      "inputs": [],
      "name": "testGet",
      "outputs": [
        {
          "internalType": "string",
          "name": "",
          "type": "string"
        }
      ],
      "stateMutability": "view",
      "type": "function",
      "constant": true
    },
    {
      "inputs": [],
      "name": "getPosts",
      "outputs": [
        {
          "components": [
            {
              "internalType": "string",
              "name": "name",
              "type": "string"
            },
            {
              "internalType": "string",
              "name": "content",
              "type": "string"
            },
            {
              "internalType": "uint32",
              "name": "prev",
              "type": "uint32"
            },
            {
              "internalType": "uint32",
              "name": "next",
              "type": "uint32"
            }
          ],
          "internalType": "struct PostFactory.Post[]",
          "name": "",
          "type": "tuple[]"
        }
      ],
      "stateMutability": "view",
      "type": "function",
      "constant": true
    },
    {
      "inputs": [
        {
          "internalType": "address",
          "name": "_owner",
          "type": "address"
        }
      ],
      "name": "getOwnedPosts",
      "outputs": [
        {
          "components": [
            {
              "internalType": "string",
              "name": "name",
              "type": "string"
            },
            {
              "internalType": "string",
              "name": "content",
              "type": "string"
            },
            {
              "internalType": "uint32",
              "name": "prev",
              "type": "uint32"
            },
            {
              "internalType": "uint32",
              "name": "next",
              "type": "uint32"
            }
          ],
          "internalType": "struct PostFactory.Post[]",
          "name": "",
          "type": "tuple[]"
        }
      ],
      "stateMutability": "view",
      "type": "function",
      "constant": true
    }
  ],
  "bytecode": "0x608060405260006100146100b760201b60201c565b9050806000806101000a81548173ffffffffffffffffffffffffffffffffffffffff021916908373ffffffffffffffffffffffffffffffffffffffff1602179055508073ffffffffffffffffffffffffffffffffffffffff16600073ffffffffffffffffffffffffffffffffffffffff167f8be0079c531659141344cd1fd0a4f28419497f9722a3daafe3b4186f6b6457e060405160405180910390a3506100bf565b600033905090565b611ae3806100ce6000396000f3fe608060405234801561001057600080fd5b50600436106100a95760003560e01c80638da5cb5b116100715780638da5cb5b14610143578063cbe8ad2114610161578063d27484d314610191578063f2fde38b1461019b578063f86c48bf146101b7578063f8a8fd6d146101e7576100a9565b80630b1e7f83146100ae57806341f3004a146100e1578063715018a6146100ff578063762ab6e2146101095780638824eba714610125575b600080fd5b6100c860048036036100c39190810190611479565b6101f1565b6040516100d8949392919061187a565b60405180910390f35b6100e961037e565b6040516100f69190611836565b60405180910390f35b61010761056d565b005b610123600480360361011e91908101906114a2565b6106c2565b005b61012d610a71565b60405161013a9190611858565b60405180910390f35b61014b610aae565b60405161015891906117c9565b60405180910390f35b61017b60048036036101769190810190611479565b610ad7565b60405161018891906117c9565b60405180910390f35b610199610b0a565b005b6101b560048036036101b09190810190611450565b610c94565b005b6101d160048036036101cc9190810190611450565b610e58565b6040516101de9190611836565b60405180910390f35b6101ef61115c565b005b600181815481106101fe57fe5b9060005260206000209060030201600091509050806000018054600181600116156101000203166002900480601f0160208091040260200160405190810160405280929190818152602001828054600181600116156101000203166002900480156102aa5780601f1061027f576101008083540402835291602001916102aa565b820191906000526020600020905b81548152906001019060200180831161028d57829003601f168201915b505050505090806001018054600181600116156101000203166002900480601f0160208091040260200160405190810160405280929190818152602001828054600181600116156101000203166002900480156103485780601f1061031d57610100808354040283529160200191610348565b820191906000526020600020905b81548152906001019060200180831161032b57829003601f168201915b5050505050908060020160009054906101000a900463ffffffff16908060020160049054906101000a900463ffffffff16905084565b60606001805480602002602001604051908101604052809291908181526020016000905b828210156105645783829060005260206000209060030201604051806080016040529081600082018054600181600116156101000203166002900480601f01602080910402602001604051908101604052809291908181526020018280546001816001161561010002031660029004801561045e5780601f106104335761010080835404028352916020019161045e565b820191906000526020600020905b81548152906001019060200180831161044157829003601f168201915b50505050508152602001600182018054600181600116156101000203166002900480601f0160208091040260200160405190810160405280929190818152602001828054600181600116156101000203166002900480156105005780601f106104d557610100808354040283529160200191610500565b820191906000526020600020905b8154815290600101906020018083116104e357829003601f168201915b505050505081526020016002820160009054906101000a900463ffffffff1663ffffffff1663ffffffff1681526020016002820160049054906101000a900463ffffffff1663ffffffff1663ffffffff1681525050815260200190600101906103a2565b50505050905090565b6105756112e6565b73ffffffffffffffffffffffffffffffffffffffff166000809054906101000a900473ffffffffffffffffffffffffffffffffffffffff1673ffffffffffffffffffffffffffffffffffffffff1614610603576040517f08c379a00000000000000000000000000000000000000000000000000000000081526004016105fa906118ed565b60405180910390fd5b600073ffffffffffffffffffffffffffffffffffffffff166000809054906101000a900473ffffffffffffffffffffffffffffffffffffffff1673ffffffffffffffffffffffffffffffffffffffff167f8be0079c531659141344cd1fd0a4f28419497f9722a3daafe3b4186f6b6457e060405160405180910390a360008060006101000a81548173ffffffffffffffffffffffffffffffffffffffff021916908373ffffffffffffffffffffffffffffffffffffffff160217905550565b6000808663ffffffff161461084b576001604051806080016040528087878080601f016020809104026020016040519081016040528093929190818152602001838380828437600081840152601f19601f82011690508083019250505050505050815260200185858080601f016020809104026020016040519081016040528093929190818152602001838380828437600081840152601f19601f8201169050808301925050505050505081526020018863ffffffff168152602001600063ffffffff16815250908060018154018082558091505060019003906000526020600020906003020160009091909190915060008201518160000190805190602001906107ce9291906112ee565b5060208201518160010190805190602001906107eb9291906112ee565b5060408201518160020160006101000a81548163ffffffff021916908363ffffffff16021790555060608201518160020160046101000a81548163ffffffff021916908363ffffffff1602179055505050600180805490500390506109c2565b6001604051806080016040528087878080601f016020809104026020016040519081016040528093929190818152602001838380828437600081840152601f19601f82011690508083019250505050505050815260200185858080601f016020809104026020016040519081016040528093929190818152602001838380828437600081840152601f19601f820116905080830192505050505050508152602001600063ffffffff168152602001600063ffffffff16815250908060018154018082558091505060019003906000526020600020906003020160009091909190915060008201518160000190805190602001906109499291906112ee565b5060208201518160010190805190602001906109669291906112ee565b5060408201518160020160006101000a81548163ffffffff021916908363ffffffff16021790555060608201518160020160046101000a81548163ffffffff021916908363ffffffff1602179055505050600180805490500390505b33600260008363ffffffff16815260200190815260200160002060006101000a81548173ffffffffffffffffffffffffffffffffffffffff021916908373ffffffffffffffffffffffffffffffffffffffff160217905550600360003373ffffffffffffffffffffffffffffffffffffffff1673ffffffffffffffffffffffffffffffffffffffff16815260200190815260200160002060008154809291906001019190505550505050505050565b60606040518060400160405280600381526020017f776f770000000000000000000000000000000000000000000000000000000000815250905090565b60008060009054906101000a900473ffffffffffffffffffffffffffffffffffffffff16905090565b60026020528060005260406000206000915054906101000a900473ffffffffffffffffffffffffffffffffffffffff1681565b600160405180608001604052806040518060400160405280600581526020017f64756d6d7900000000000000000000000000000000000000000000000000000081525081526020016040518060400160405280600581526020017f64756d6d790000000000000000000000000000000000000000000000000000008152508152602001600063ffffffff168152602001600063ffffffff1681525090806001815401808255809150506001900390600052602060002090600302016000909190919091506000820151816000019080519060200190610bea9291906112ee565b506020820151816001019080519060200190610c079291906112ee565b5060408201518160020160006101000a81548163ffffffff021916908363ffffffff16021790555060608201518160020160046101000a81548163ffffffff021916908363ffffffff16021790555050507fb6863b9cfc6da0e0313a58a7af7891ccb06314edfe1ed6c02ef59b35891d8a54336001604051610c8a9291906117e4565b60405180910390a1565b610c9c6112e6565b73ffffffffffffffffffffffffffffffffffffffff166000809054906101000a900473ffffffffffffffffffffffffffffffffffffffff1673ffffffffffffffffffffffffffffffffffffffff1614610d2a576040517f08c379a0000000000000000000000000000000000000000000000000000000008152600401610d21906118ed565b60405180910390fd5b600073ffffffffffffffffffffffffffffffffffffffff168173ffffffffffffffffffffffffffffffffffffffff161415610d9a576040517f08c379a0000000000000000000000000000000000000000000000000000000008152600401610d91906118cd565b60405180910390fd5b8073ffffffffffffffffffffffffffffffffffffffff166000809054906101000a900473ffffffffffffffffffffffffffffffffffffffff1673ffffffffffffffffffffffffffffffffffffffff167f8be0079c531659141344cd1fd0a4f28419497f9722a3daafe3b4186f6b6457e060405160405180910390a3806000806101000a81548173ffffffffffffffffffffffffffffffffffffffff021916908373ffffffffffffffffffffffffffffffffffffffff16021790555050565b606080600360008473ffffffffffffffffffffffffffffffffffffffff1673ffffffffffffffffffffffffffffffffffffffff16815260200190815260200160002054604051908082528060200260200182016040528015610ed457816020015b610ec161136e565b815260200190600190039081610eb95790505b509050600080905060008090505b6001805490508163ffffffff161015611151578473ffffffffffffffffffffffffffffffffffffffff16600260008363ffffffff16815260200190815260200160002060009054906101000a900473ffffffffffffffffffffffffffffffffffffffff1673ffffffffffffffffffffffffffffffffffffffff1614156111445760018163ffffffff1681548110610f7557fe5b9060005260206000209060030201604051806080016040529081600082018054600181600116156101000203166002900480601f0160208091040260200160405190810160405280929190818152602001828054600181600116156101000203166002900480156110275780601f10610ffc57610100808354040283529160200191611027565b820191906000526020600020905b81548152906001019060200180831161100a57829003601f168201915b50505050508152602001600182018054600181600116156101000203166002900480601f0160208091040260200160405190810160405280929190818152602001828054600181600116156101000203166002900480156110c95780601f1061109e576101008083540402835291602001916110c9565b820191906000526020600020905b8154815290600101906020018083116110ac57829003601f168201915b505050505081526020016002820160009054906101000a900463ffffffff1663ffffffff1663ffffffff1681526020016002820160049054906101000a900463ffffffff1663ffffffff1663ffffffff1681525050838363ffffffff168151811061113057fe5b602002602001018190525081806001019250505b8080600101915050610ee2565b508192505050919050565b600160405180608001604052806040518060400160405280600681526020017f64756d6d7931000000000000000000000000000000000000000000000000000081525081526020016040518060400160405280600681526020017f64756d6d793100000000000000000000000000000000000000000000000000008152508152602001600063ffffffff168152602001600063ffffffff168152509080600181540180825580915050600190039060005260206000209060030201600090919091909150600082015181600001908051906020019061123c9291906112ee565b5060208201518160010190805190602001906112599291906112ee565b5060408201518160020160006101000a81548163ffffffff021916908363ffffffff16021790555060608201518160020160046101000a81548163ffffffff021916908363ffffffff16021790555050507fb6863b9cfc6da0e0313a58a7af7891ccb06314edfe1ed6c02ef59b35891d8a543360026040516112dc92919061180d565b60405180910390a1565b600033905090565b828054600181600116156101000203166002900490600052602060002090601f016020900481019282601f1061132f57805160ff191683800117855561135d565b8280016001018555821561135d579182015b8281111561135c578251825591602001919060010190611341565b5b50905061136a91906113a2565b5090565b60405180608001604052806060815260200160608152602001600063ffffffff168152602001600063ffffffff1681525090565b6113c491905b808211156113c05760008160009055506001016113a8565b5090565b90565b6000813590506113d681611a68565b92915050565b60008083601f8401126113ee57600080fd5b8235905067ffffffffffffffff81111561140757600080fd5b60208301915083600182028301111561141f57600080fd5b9250929050565b60008135905061143581611a7f565b92915050565b60008135905061144a81611a96565b92915050565b60006020828403121561146257600080fd5b6000611470848285016113c7565b91505092915050565b60006020828403121561148b57600080fd5b600061149984828501611426565b91505092915050565b6000806000806000606086880312156114ba57600080fd5b60006114c88882890161143b565b955050602086013567ffffffffffffffff8111156114e557600080fd5b6114f1888289016113dc565b9450945050604086013567ffffffffffffffff81111561151057600080fd5b61151c888289016113dc565b92509250509295509295909350565b60006115378383611741565b905092915050565b611548816119ca565b82525050565b6115578161197e565b82525050565b60006115688261191d565b611572818561194b565b9350836020820285016115848561190d565b8060005b858110156115c057848403895281516115a1858261152b565b94506115ac8361193e565b925060208a01995050600181019050611588565b50829750879550505050505092915050565b6115db816119dc565b82525050565b6115ea816119ee565b82525050565b60006115fb82611933565b611605818561196d565b9350611615818560208601611a24565b61161e81611a57565b840191505092915050565b600061163482611928565b61163e818561195c565b935061164e818560208601611a24565b61165781611a57565b840191505092915050565b600061166d82611928565b611677818561196d565b9350611687818560208601611a24565b61169081611a57565b840191505092915050565b60006116a860268361196d565b91507f4f776e61626c653a206e6577206f776e657220697320746865207a65726f206160008301527f64647265737300000000000000000000000000000000000000000000000000006020830152604082019050919050565b600061170e60208361196d565b91507f4f776e61626c653a2063616c6c6572206973206e6f7420746865206f776e65726000830152602082019050919050565b6000608083016000830151848203600086015261175e8282611629565b915050602083015184820360208601526117788282611629565b915050604083015161178d60408601826117ab565b5060608301516117a060608601826117ab565b508091505092915050565b6117b4816119ba565b82525050565b6117c3816119ba565b82525050565b60006020820190506117de600083018461154e565b92915050565b60006040820190506117f9600083018561153f565b61180660208301846115d2565b9392505050565b6000604082019050611822600083018561153f565b61182f60208301846115e1565b9392505050565b60006020820190508181036000830152611850818461155d565b905092915050565b6000602082019050818103600083015261187281846115f0565b905092915050565b600060808201905081810360008301526118948187611662565b905081810360208301526118a88186611662565b90506118b760408301856117ba565b6118c460608301846117ba565b95945050505050565b600060208201905081810360008301526118e68161169b565b9050919050565b6000602082019050818103600083015261190681611701565b9050919050565b6000819050602082019050919050565b600081519050919050565b600081519050919050565b600081519050919050565b6000602082019050919050565b600082825260208201905092915050565b600082825260208201905092915050565b600082825260208201905092915050565b600061198982611990565b9050919050565b600073ffffffffffffffffffffffffffffffffffffffff82169050919050565b6000819050919050565b600063ffffffff82169050919050565b60006119d582611a00565b9050919050565b60006119e7826119b0565b9050919050565b60006119f9826119b0565b9050919050565b6000611a0b82611a12565b9050919050565b6000611a1d82611990565b9050919050565b60005b83811015611a42578082015181840152602081019050611a27565b83811115611a51576000848401525b50505050565b6000601f19601f8301169050919050565b611a718161197e565b8114611a7c57600080fd5b50565b611a88816119b0565b8114611a9357600080fd5b50565b611a9f816119ba565b8114611aaa57600080fd5b5056fea2646970667358221220b99664f761faec2548b917f5cb23fe4e6783dbe7eb3da2a5613ccb2bc5c8bd0764736f6c63430006010033",
  "source": "pragma solidity >=0.4.21 <0.7.0;\npragma experimental ABIEncoderV2;\n\nimport \"@openzeppelin/contracts/access/Ownable.sol\";\n\ncontract PostFactory is Ownable {\n    event voteCast(address client, uint hit);\n\n    struct Post {\n        string name;\n        string content;\n        uint32 prev;\n        uint32 next;\n    }\n\n    Post[] public posts;\n\n    mapping (uint => address) public postToOwner;\n    mapping (address => uint) ownerPostCount;\n\n    function SurveyFactory() public {\n        posts.push(Post(\"dummy\", \"dummy\", 0, 0));\n        emit voteCast(msg.sender, 1);\n\n    }\n\n    function createPost(uint32 _prev, string calldata _name, string calldata _content) external {\n        uint32 id;\n        if (_prev != 0) {\n            posts.push(Post(_name, _content, _prev, 0));\n            id = uint32(posts.length - 1);\n        } else {\n            posts.push(Post(_name, _content, 0, 0));\n            id = uint32(posts.length - 1);\n        }\n        postToOwner[id] = msg.sender;\n        ownerPostCount[msg.sender]++;\n    }\n\n    function test() public {\n        posts.push(Post(\"dummy1\", \"dummy1\", 0, 0));\n        emit voteCast(msg.sender, 2);\n    }\n\n    function testGet() external view returns(string memory) {\n        return \"wow\";\n    }\n\n    function getPosts() external view returns(Post[] memory){\n        return posts;\n    }\n\n    function getOwnedPosts(address  _owner) external view returns(Post[] memory) {\n        Post[] memory result = new Post[](ownerPostCount[_owner]);\n        uint32 counter = 0;\n        for (uint32 i = 0; i < posts.length; i++) {\n            if (postToOwner[i] == _owner) {\n                result[counter] = posts[i];\n                counter++;\n            }\n        }\n        return result;\n    }\n\n}",
  "sourcePath": "/Users/neo/IdeaProjects/shared/contracts/PostFactory.sol",
  "compiler": {
    "name": "solc",
    "version": "0.6.1+commit.e6f7d5a4.Emscripten.clang"
  },
  "schemaVersion": "3.2.0",
  "updatedAt": "2020-06-15T07:25:16.520Z",
  "networkType": "ethereum",
  "devdoc": {
    "methods": {
      "owner()": {
        "details": "Returns the address of the current owner."
      },
      "renounceOwnership()": {
        "details": "Leaves the contract without owner. It will not be possible to call `onlyOwner` functions anymore. Can only be called by the current owner.     * NOTE: Renouncing ownership will leave the contract without an owner, thereby removing any functionality that is only available to the owner."
      },
      "transferOwnership(address)": {
        "details": "Transfers ownership of the contract to a new account (`newOwner`). Can only be called by the current owner."
      }
    }
  },
  "userdoc": {
    "methods": {}
  }
}