{
  "contractName": "PostFactory",
  "abi": [
    {
      "anonymous": false,
      "inputs": [
        {
          "indexed": true,
          "internalType": "address",
          "name": "previousOwner",
          "type": "address"
        },
        {
          "indexed": true,
          "internalType": "address",
          "name": "newOwner",
          "type": "address"
        }
      ],
      "name": "OwnershipTransferred",
      "type": "event"
    },
    {
      "inputs": [],
      "name": "owner",
      "outputs": [
        {
          "internalType": "address",
          "name": "",
          "type": "address"
        }
      ],
      "stateMutability": "view",
      "type": "function",
      "constant": true
    },
    {
      "inputs": [
        {
          "internalType": "uint256",
          "name": "",
          "type": "uint256"
        }
      ],
      "name": "postToOwner",
      "outputs": [
        {
          "internalType": "address",
          "name": "",
          "type": "address"
        }
      ],
      "stateMutability": "view",
      "type": "function",
      "constant": true
    },
    {
      "inputs": [
        {
          "internalType": "uint256",
          "name": "",
          "type": "uint256"
        }
      ],
      "name": "posts",
      "outputs": [
        {
          "internalType": "string",
          "name": "name",
          "type": "string"
        },
        {
          "internalType": "string",
          "name": "content",
          "type": "string"
        },
        {
          "internalType": "uint32",
          "name": "prev",
          "type": "uint32"
        },
        {
          "internalType": "uint32",
          "name": "next",
          "type": "uint32"
        }
      ],
      "stateMutability": "view",
      "type": "function",
      "constant": true
    },
    {
      "inputs": [],
      "name": "renounceOwnership",
      "outputs": [],
      "stateMutability": "nonpayable",
      "type": "function"
    },
    {
      "inputs": [
        {
          "internalType": "address",
          "name": "newOwner",
          "type": "address"
        }
      ],
      "name": "transferOwnership",
      "outputs": [],
      "stateMutability": "nonpayable",
      "type": "function"
    },
    {
      "inputs": [],
      "name": "SurveyFactory",
      "outputs": [],
      "stateMutability": "nonpayable",
      "type": "function"
    },
    {
      "inputs": [
        {
          "internalType": "uint32",
          "name": "_prev",
          "type": "uint32"
        },
        {
          "internalType": "string",
          "name": "_name",
          "type": "string"
        },
        {
          "internalType": "string",
          "name": "_content",
          "type": "string"
        }
      ],
      "name": "createPost",
      "outputs": [],
      "stateMutability": "nonpayable",
      "type": "function"
    },
    {
      "inputs": [],
      "name": "getPosts",
      "outputs": [
        {
          "components": [
            {
              "internalType": "string",
              "name": "name",
              "type": "string"
            },
            {
              "internalType": "string",
              "name": "content",
              "type": "string"
            },
            {
              "internalType": "uint32",
              "name": "prev",
              "type": "uint32"
            },
            {
              "internalType": "uint32",
              "name": "next",
              "type": "uint32"
            }
          ],
          "internalType": "struct PostFactory.Post[]",
          "name": "",
          "type": "tuple[]"
        }
      ],
      "stateMutability": "view",
      "type": "function",
      "constant": true
    },
    {
      "inputs": [
        {
          "internalType": "address",
          "name": "_owner",
          "type": "address"
        }
      ],
      "name": "getOwnedPosts",
      "outputs": [
        {
          "components": [
            {
              "internalType": "string",
              "name": "name",
              "type": "string"
            },
            {
              "internalType": "string",
              "name": "content",
              "type": "string"
            },
            {
              "internalType": "uint32",
              "name": "prev",
              "type": "uint32"
            },
            {
              "internalType": "uint32",
              "name": "next",
              "type": "uint32"
            }
          ],
          "internalType": "struct PostFactory.Post[]",
          "name": "",
          "type": "tuple[]"
        }
      ],
      "stateMutability": "view",
      "type": "function",
      "constant": true
    }
  ],
  "bytecode": "0x608060405260006100146100b760201b60201c565b9050806000806101000a81548173ffffffffffffffffffffffffffffffffffffffff021916908373ffffffffffffffffffffffffffffffffffffffff1602179055508073ffffffffffffffffffffffffffffffffffffffff16600073ffffffffffffffffffffffffffffffffffffffff167f8be0079c531659141344cd1fd0a4f28419497f9722a3daafe3b4186f6b6457e060405160405180910390a3506100bf565b600033905090565b611765806100ce6000396000f3fe608060405234801561001057600080fd5b50600436106100935760003560e01c80638da5cb5b116100665780638da5cb5b1461010f578063cbe8ad211461012d578063d27484d31461015d578063f2fde38b14610167578063f86c48bf1461018357610093565b80630b1e7f831461009857806341f3004a146100cb578063715018a6146100e9578063762ab6e2146100f3575b600080fd5b6100b260048036036100ad919081019061123a565b6101b3565b6040516100c29493929190611561565b60405180910390f35b6100d3610340565b6040516100e0919061153f565b60405180910390f35b6100f161052f565b005b61010d60048036036101089190810190611263565b610684565b005b610117610a33565b6040516101249190611524565b60405180910390f35b6101476004803603610142919081019061123a565b610a5c565b6040516101549190611524565b60405180910390f35b610165610a8f565b005b610181600480360361017c9190810190611211565b610bdf565b005b61019d60048036036101989190810190611211565b610da3565b6040516101aa919061153f565b60405180910390f35b600181815481106101c057fe5b9060005260206000209060030201600091509050806000018054600181600116156101000203166002900480601f01602080910402602001604051908101604052809291908181526020018280546001816001161561010002031660029004801561026c5780601f106102415761010080835404028352916020019161026c565b820191906000526020600020905b81548152906001019060200180831161024f57829003601f168201915b505050505090806001018054600181600116156101000203166002900480601f01602080910402602001604051908101604052809291908181526020018280546001816001161561010002031660029004801561030a5780601f106102df5761010080835404028352916020019161030a565b820191906000526020600020905b8154815290600101906020018083116102ed57829003601f168201915b5050505050908060020160009054906101000a900463ffffffff16908060020160049054906101000a900463ffffffff16905084565b60606001805480602002602001604051908101604052809291908181526020016000905b828210156105265783829060005260206000209060030201604051806080016040529081600082018054600181600116156101000203166002900480601f0160208091040260200160405190810160405280929190818152602001828054600181600116156101000203166002900480156104205780601f106103f557610100808354040283529160200191610420565b820191906000526020600020905b81548152906001019060200180831161040357829003601f168201915b50505050508152602001600182018054600181600116156101000203166002900480601f0160208091040260200160405190810160405280929190818152602001828054600181600116156101000203166002900480156104c25780601f10610497576101008083540402835291602001916104c2565b820191906000526020600020905b8154815290600101906020018083116104a557829003601f168201915b505050505081526020016002820160009054906101000a900463ffffffff1663ffffffff1663ffffffff1681526020016002820160049054906101000a900463ffffffff1663ffffffff1663ffffffff168152505081526020019060010190610364565b50505050905090565b6105376110a7565b73ffffffffffffffffffffffffffffffffffffffff166000809054906101000a900473ffffffffffffffffffffffffffffffffffffffff1673ffffffffffffffffffffffffffffffffffffffff16146105c5576040517f08c379a00000000000000000000000000000000000000000000000000000000081526004016105bc906115d4565b60405180910390fd5b600073ffffffffffffffffffffffffffffffffffffffff166000809054906101000a900473ffffffffffffffffffffffffffffffffffffffff1673ffffffffffffffffffffffffffffffffffffffff167f8be0079c531659141344cd1fd0a4f28419497f9722a3daafe3b4186f6b6457e060405160405180910390a360008060006101000a81548173ffffffffffffffffffffffffffffffffffffffff021916908373ffffffffffffffffffffffffffffffffffffffff160217905550565b6000808663ffffffff161461080d576001604051806080016040528087878080601f016020809104026020016040519081016040528093929190818152602001838380828437600081840152601f19601f82011690508083019250505050505050815260200185858080601f016020809104026020016040519081016040528093929190818152602001838380828437600081840152601f19601f8201169050808301925050505050505081526020018863ffffffff168152602001600063ffffffff16815250908060018154018082558091505060019003906000526020600020906003020160009091909190915060008201518160000190805190602001906107909291906110af565b5060208201518160010190805190602001906107ad9291906110af565b5060408201518160020160006101000a81548163ffffffff021916908363ffffffff16021790555060608201518160020160046101000a81548163ffffffff021916908363ffffffff160217905550505060018080549050039050610984565b6001604051806080016040528087878080601f016020809104026020016040519081016040528093929190818152602001838380828437600081840152601f19601f82011690508083019250505050505050815260200185858080601f016020809104026020016040519081016040528093929190818152602001838380828437600081840152601f19601f820116905080830192505050505050508152602001600063ffffffff168152602001600063ffffffff168152509080600181540180825580915050600190039060005260206000209060030201600090919091909150600082015181600001908051906020019061090b9291906110af565b5060208201518160010190805190602001906109289291906110af565b5060408201518160020160006101000a81548163ffffffff021916908363ffffffff16021790555060608201518160020160046101000a81548163ffffffff021916908363ffffffff1602179055505050600180805490500390505b33600260008363ffffffff16815260200190815260200160002060006101000a81548173ffffffffffffffffffffffffffffffffffffffff021916908373ffffffffffffffffffffffffffffffffffffffff160217905550600360003373ffffffffffffffffffffffffffffffffffffffff1673ffffffffffffffffffffffffffffffffffffffff16815260200190815260200160002060008154809291906001019190505550505050505050565b60008060009054906101000a900473ffffffffffffffffffffffffffffffffffffffff16905090565b60026020528060005260406000206000915054906101000a900473ffffffffffffffffffffffffffffffffffffffff1681565b600160405180608001604052806040518060400160405280600581526020017f64756d6d7900000000000000000000000000000000000000000000000000000081525081526020016040518060400160405280600581526020017f64756d6d790000000000000000000000000000000000000000000000000000008152508152602001600063ffffffff168152602001600063ffffffff1681525090806001815401808255809150506001900390600052602060002090600302016000909190919091506000820151816000019080519060200190610b6f9291906110af565b506020820151816001019080519060200190610b8c9291906110af565b5060408201518160020160006101000a81548163ffffffff021916908363ffffffff16021790555060608201518160020160046101000a81548163ffffffff021916908363ffffffff1602179055505050565b610be76110a7565b73ffffffffffffffffffffffffffffffffffffffff166000809054906101000a900473ffffffffffffffffffffffffffffffffffffffff1673ffffffffffffffffffffffffffffffffffffffff1614610c75576040517f08c379a0000000000000000000000000000000000000000000000000000000008152600401610c6c906115d4565b60405180910390fd5b600073ffffffffffffffffffffffffffffffffffffffff168173ffffffffffffffffffffffffffffffffffffffff161415610ce5576040517f08c379a0000000000000000000000000000000000000000000000000000000008152600401610cdc906115b4565b60405180910390fd5b8073ffffffffffffffffffffffffffffffffffffffff166000809054906101000a900473ffffffffffffffffffffffffffffffffffffffff1673ffffffffffffffffffffffffffffffffffffffff167f8be0079c531659141344cd1fd0a4f28419497f9722a3daafe3b4186f6b6457e060405160405180910390a3806000806101000a81548173ffffffffffffffffffffffffffffffffffffffff021916908373ffffffffffffffffffffffffffffffffffffffff16021790555050565b606080600360008473ffffffffffffffffffffffffffffffffffffffff1673ffffffffffffffffffffffffffffffffffffffff16815260200190815260200160002054604051908082528060200260200182016040528015610e1f57816020015b610e0c61112f565b815260200190600190039081610e045790505b509050600080905060008090505b6001805490508163ffffffff16101561109c578473ffffffffffffffffffffffffffffffffffffffff16600260008363ffffffff16815260200190815260200160002060009054906101000a900473ffffffffffffffffffffffffffffffffffffffff1673ffffffffffffffffffffffffffffffffffffffff16141561108f5760018163ffffffff1681548110610ec057fe5b9060005260206000209060030201604051806080016040529081600082018054600181600116156101000203166002900480601f016020809104026020016040519081016040528092919081815260200182805460018160011615610100020316600290048015610f725780601f10610f4757610100808354040283529160200191610f72565b820191906000526020600020905b815481529060010190602001808311610f5557829003601f168201915b50505050508152602001600182018054600181600116156101000203166002900480601f0160208091040260200160405190810160405280929190818152602001828054600181600116156101000203166002900480156110145780601f10610fe957610100808354040283529160200191611014565b820191906000526020600020905b815481529060010190602001808311610ff757829003601f168201915b505050505081526020016002820160009054906101000a900463ffffffff1663ffffffff1663ffffffff1681526020016002820160049054906101000a900463ffffffff1663ffffffff1663ffffffff1681525050838363ffffffff168151811061107b57fe5b602002602001018190525081806001019250505b8080600101915050610e2d565b508192505050919050565b600033905090565b828054600181600116156101000203166002900490600052602060002090601f016020900481019282601f106110f057805160ff191683800117855561111e565b8280016001018555821561111e579182015b8281111561111d578251825591602001919060010190611102565b5b50905061112b9190611163565b5090565b60405180608001604052806060815260200160608152602001600063ffffffff168152602001600063ffffffff1681525090565b61118591905b80821115611181576000816000905550600101611169565b5090565b90565b600081359050611197816116ea565b92915050565b60008083601f8401126111af57600080fd5b8235905067ffffffffffffffff8111156111c857600080fd5b6020830191508360018202830111156111e057600080fd5b9250929050565b6000813590506111f681611701565b92915050565b60008135905061120b81611718565b92915050565b60006020828403121561122357600080fd5b600061123184828501611188565b91505092915050565b60006020828403121561124c57600080fd5b600061125a848285016111e7565b91505092915050565b60008060008060006060868803121561127b57600080fd5b6000611289888289016111fc565b955050602086013567ffffffffffffffff8111156112a657600080fd5b6112b28882890161119d565b9450945050604086013567ffffffffffffffff8111156112d157600080fd5b6112dd8882890161119d565b92509250509295509295909350565b60006112f8838361149c565b905092915050565b6113098161165a565b82525050565b600061131a82611604565b6113248185611627565b935083602082028501611336856115f4565b8060005b85811015611372578484038952815161135385826112ec565b945061135e8361161a565b925060208a0199505060018101905061133a565b50829750879550505050505092915050565b600061138f8261160f565b6113998185611638565b93506113a98185602086016116a6565b6113b2816116d9565b840191505092915050565b60006113c88261160f565b6113d28185611649565b93506113e28185602086016116a6565b6113eb816116d9565b840191505092915050565b6000611403602683611649565b91507f4f776e61626c653a206e6577206f776e657220697320746865207a65726f206160008301527f64647265737300000000000000000000000000000000000000000000000000006020830152604082019050919050565b6000611469602083611649565b91507f4f776e61626c653a2063616c6c6572206973206e6f7420746865206f776e65726000830152602082019050919050565b600060808301600083015184820360008601526114b98282611384565b915050602083015184820360208601526114d38282611384565b91505060408301516114e86040860182611506565b5060608301516114fb6060860182611506565b508091505092915050565b61150f81611696565b82525050565b61151e81611696565b82525050565b60006020820190506115396000830184611300565b92915050565b60006020820190508181036000830152611559818461130f565b905092915050565b6000608082019050818103600083015261157b81876113bd565b9050818103602083015261158f81866113bd565b905061159e6040830185611515565b6115ab6060830184611515565b95945050505050565b600060208201905081810360008301526115cd816113f6565b9050919050565b600060208201905081810360008301526115ed8161145c565b9050919050565b6000819050602082019050919050565b600081519050919050565b600081519050919050565b6000602082019050919050565b600082825260208201905092915050565b600082825260208201905092915050565b600082825260208201905092915050565b60006116658261166c565b9050919050565b600073ffffffffffffffffffffffffffffffffffffffff82169050919050565b6000819050919050565b600063ffffffff82169050919050565b60005b838110156116c45780820151818401526020810190506116a9565b838111156116d3576000848401525b50505050565b6000601f19601f8301169050919050565b6116f38161165a565b81146116fe57600080fd5b50565b61170a8161168c565b811461171557600080fd5b50565b61172181611696565b811461172c57600080fd5b5056fea264697066735822122097f45494e6dd6d35f7b8d128be0d3cd8b10a7dc449a1deb9506941492608e1a364736f6c63430006010033",
  "source": "pragma solidity >=0.4.21 <0.7.0;\npragma experimental ABIEncoderV2;\n\nimport \"@openzeppelin/contracts/access/Ownable.sol\";\n\ncontract PostFactory is Ownable {\n\n    struct Post {\n        string name;\n        string content;\n        uint32 prev;\n        uint32 next;\n    }\n\n    Post[] public posts;\n\n    mapping (uint => address) public postToOwner;\n    mapping (address => uint) ownerPostCount;\n\n    function SurveyFactory() public {\n        posts.push(Post(\"dummy\", \"dummy\", 0, 0));\n\n    }\n\n    function createPost(uint32 _prev, string calldata _name, string calldata _content) external {\n        uint32 id;\n        if (_prev != 0) {\n            posts.push(Post(_name, _content, _prev, 0));\n            id = uint32(posts.length - 1);\n        } else {\n            posts.push(Post(_name, _content, 0, 0));\n            id = uint32(posts.length - 1);\n        }\n        postToOwner[id] = msg.sender;\n        ownerPostCount[msg.sender]++;\n    }\n\n    function getPosts() external view returns(Post[] memory){\n        return posts;\n    }\n\n    function getOwnedPosts(address  _owner) external view returns(Post[] memory) {\n        Post[] memory result = new Post[](ownerPostCount[_owner]);\n        uint32 counter = 0;\n        for (uint32 i = 0; i < posts.length; i++) {\n            if (postToOwner[i] == _owner) {\n                result[counter] = posts[i];\n                counter++;\n            }\n        }\n        return result;\n    }\n\n}",
  "sourcePath": "/Users/neo/IdeaProjects/shared/contracts/PostFactory.sol",
  "compiler": {
    "name": "solc",
    "version": "0.6.1+commit.e6f7d5a4.Emscripten.clang"
  },
  "schemaVersion": "3.2.0",
  "updatedAt": "2020-06-15T02:27:17.333Z",
  "networkType": "ethereum",
  "devdoc": {
    "methods": {
      "owner()": {
        "details": "Returns the address of the current owner."
      },
      "renounceOwnership()": {
        "details": "Leaves the contract without owner. It will not be possible to call `onlyOwner` functions anymore. Can only be called by the current owner.     * NOTE: Renouncing ownership will leave the contract without an owner, thereby removing any functionality that is only available to the owner."
      },
      "transferOwnership(address)": {
        "details": "Transfers ownership of the contract to a new account (`newOwner`). Can only be called by the current owner."
      }
    }
  },
  "userdoc": {
    "methods": {}
  }
}